:020000040800F2
:10000000F006002001010008411A0008DD16000872
:100010006118000833090008F51E00080000000000
:10002000000000000000000000000000BF1B0008EE
:10003000010A000800000000BD1B0008C11B0008E9
:100040001B0100081B0100081B0100081B01000820
:100050001B0100081B0100081B0100081B01000810
:100060001B0100081B0100081B0100081B01000800
:100070001B0100081B0100081B0100081B010008F0
:100080001B0100081B0100081B0100081B010008E0
:100090001B0100081B0100081B0100081B010008D0
:1000A0001B0100081B0100081B0100081B010008C0
:1000B0001B0100081B0100081B0100081B010008B0
:1000C0001B0100081B0100081B0100081B010008A0
:1000D0001B0100081B010008C51E00081B010008C9
:1000E0001B0100081B0100081B010008DFF80CD0F1
:1000F00000F000FC00480047CD270008F006002073
:100100000648804706480047FEE7FEE7FEE7FEE7B1
:10011000FEE7FEE7FEE7FEE7FEE7FEE73D1C000820
:10012000ED000008202A04DB203A21FA02F0002129
:10013000704721FA02F3D040C2F1200291400843F7
:1001400019467047D2B201E000F8012B491EFBD2DC
:1001500070470022F6E710B513460A4604461946D2
:10016000FFF7F0FF204610BDF0B480EA0102D40F83
:100170004200B2EB410F02D20246084611464A0045
:1001800042D0C30DDDB2C1F3C752AD1A202D35DA0E
:10019000C1F3160141F4000204B15242C5F1200638
:1001A00002FA06F12A411044B3EBD05F23D0C4B168
:1001B000012DA0EBC35009DCF0BC4FF0004202EA75
:1001C000C352DBB200F5000000F082BA400000F13B
:1001D000807000EBC350A0F1807040EAD1704900FC
:1001E00009E0490841EAC071A0EBC35000F50000E6
:1001F000400800EBC350F0BC00F061BA614201223C
:1002000002EB4101001BF6E7F0BC704781F00041B2
:10021000AAE780F00040A7E780EA010210B502F0EB
:100220000043400022D04A001FD0010E01EB1261B2
:10023000C0F35600C2F3560240F4000042F400023C
:10024000A0FB022000047F39140400D0401C50EAB7
:10025000124001D44000491EC2B20C0604EBD0107B
:10026000401C4008802A02D003E0002010BD20F08E
:100270000100002900DA0020184310BD30B480EAE4
:10028000010202F0004530F0004221F0004013D09E
:1002900090B1C30DD40DC2F31601C0F31600E41AD9
:1002A00041F4000140F400027D34914201D3641C0A
:1002B00000E04900002C02DA30BC002070474FF407
:1002C00000000023914201D3891A034340084FEAFA
:1002D0004101F7D151B1914202D14FF0004105E007
:1002E00002D24FF0010101E06FF0010103EBC450B5
:1002F000284430BC00F0E3B9420005D0C0F3C75237
:100300005242914201DC0020704700EBC15070471F
:100310002DE9FE4F804681EA0300C00F0C46009095
:1003200021F0004123F00045B8EB0200A94105D2BD
:100330004046214690461C460B46024623F00040AC
:10034000104347D0270DC7F30A00C3F30A510290A8
:10035000401A019040286BDAC3F3130040F4801B6D
:100360000098924620B10023D2EB030A63EB0B0BFB
:1003700001985946C0F14002504600F07FF9064608
:100380000D4650465946019A00F087F910EB0800D7
:100390006141002487EA115284EAE7731A4340D08E
:1003A000009A62B3019A012A4FEA075215DC001B3A
:1003B00061EB02014FF0004202EA0752CDE9004230
:1003C000001C41F5801132462B4600F0BEF903B007
:1003D000BDE8F08F40462146F9E7001B61EB0201C2
:1003E000001C41F5801300185B412018A2F500178E
:1003F00047EB030140EAD570B6196D4111E06D0875
:100400004FEA360645EAC0754FEA0752001B61EB1A
:100410000201001C41F5801149084FEA3000001923
:10042000514132462B4603B0BDE8F04F00F07EB993
:100430000098012240000023D0EB020263EBE0733E
:10044000009821464FEAE074B8EB000061EB04012C
:10045000E9E783F000435BE781F0004158E72DE9CD
:10046000FE4F81EA030404F0004421F000410094AF
:100470004FF0000B23F0004350EA01045ED052EA33
:1004800003045BD0C3F30A54C1F30A552C44A4F20D
:10049000F3340194A0FB0254C1F3130141F4801121
:1004A000C3F3130343F4801301FB024400FB034E28
:1004B000840A970A44EA815447EA8357A4FB0768F1
:1004C00002958D0A05FB07854FEA932C04FB0C541B
:1004D0002705029D4FEA065847EA1637B5EB08058F
:1004E0006EEB070C870E920E47EA811742EA8312E1
:1004F000A7FB0201B6EB0B0164EB00042B0D43EAF2
:100500000C335E1844EB1C50DA465146E7FB0201FF
:10051000C5F313044FEA0B3343EA14534FEA043292
:10052000019C43EA0603A4F10C040294009CCDE96B
:1005300000B400F00AF903B0BDE8F08F00200146D6
:10054000F9E7C10F80EAE0700844CA07962300214A
:1005500000F0BEB896230022114600F0B9B80EB5DF
:10056000C10F80EAE0700844CA07002140F233431B
:100570008DE80E000A460B4600F0E7F803B000BD18
:1005800070B5C1F30A5201F000450024C1F3130114
:1005900040F2FF3341F480119A4201DA002070BD2D
:1005A00040F233439A42A2F2334203DC5242FFF755
:1005B000B9FD00E090402C43F1D0404270BD00F006
:1005C000004230F000400AD0C10D01F56071C0F367
:1005D000160042EA0151C20840071143704700204B
:1005E0000146704730B5041E71F1000404DB4FF082
:1005F0000044404264EB0101141E73F1000405DB6A
:100600001C464FF00043524263EB04038B4208BF89
:10061000824230BD30B5041E71F1000404DB4FF09E
:100620000044404264EB0101141E73F1000405DB39
:100630001C464FF00043524263EB0403994208BF4B
:10064000904230BD01F0004330B421F0004150EA47
:10065000010206D00A0DA2F56072C1F31301002A4F
:1006600002DC30BC00207047440F44EAC104C100E2
:10067000E01830BC00EBC25000F021B8202A04DBA7
:10068000203A00FA02F1002070479140C2F12003A5
:1006900020FA03F3194390407047202A06DBCB175A
:1006A000203A41FA02F043EAE07306E041FA02F32D
:1006B000D040C2F1200291400843194670470029FA
:1006C000A8BF7047401C490008BF20F001007047D8
:1006D00010B4B0FA80FC00FA0CF050EA010404BF38
:1006E00010BC704749B1CCF1200421FA04F411FA8E
:1006F0000CF118BF012121430843A3EB0C01CB1DD2
:100700004FEA00614FEA102042BF002010BC704742
:1007100000EBC35010440029A4BF10BC7047401C1C
:10072000490008BF20F0010010BC704710B5141E2E
:1007300073F1000408DA401C41F1000192185B419A
:100740001A4301D120F0010010BD2DE9F04D924671
:100750009B4611B1B1FA81F202E0B0FA80F2203288
:100760009046FFF78BFF04460F4640EA0A0041EA35
:100770000B0153465A46084313D0114653EA010071
:1007800019D0C8F140025046FFF7CCFC05460E4692
:10079000504659464246FFF771FF084305D00120F5
:1007A00004E020463946BDE8F08D0020054346EAC6
:1007B000E0762C4337430A986305E40AA0EB08006F
:1007C0000022FD0A44EA47540A3002D500200146BF
:1007D000E9E7010510196941DDE90845001969419A
:1007E000BDE8F04DA2E72DE9F04D81EA030404F0E5
:1007F000004B21F0004514464FF0000A23F0004161
:1008000050EA050220D054EA01021DD0C5F30A5770
:100810000246C5F31303C1F31300C1F30A5640F4B3
:10082000801543F48013A7EB0608101BD64608F288
:10083000FD3873EB050002D308F1010801E09218BE
:100840005B41B8F1000F03DA00200146BDE8F08DEE
:1008500000204FF48011064684460EE0171B73EB10
:10086000050705D3121B63EB050306434CEA010C95
:1008700049084FEA300092185B4150EA0107EDD178
:1008800052EA030012D082EA040083EA0501084319
:1008900005D0101BAB4106D20122002306E0002246
:1008A0004FF0004302E06FF0010253101AEB060014
:1008B0004CEB085110EB0A0041EB0B01BDE8F04D89
:1008C000FFF734BF70B521F0004303430CD0C1F3F0
:1008D0000A550024D5EB040564EB0403D617AD1AC2
:1008E000B34102DB0020014670BD201841EB0251EC
:1008F00070BD0000064C074D06E0E06840F00103C3
:1009000094E8070098471034AC42F6D3FFF7F2FBA7
:10091000602B0008802B00080EB540F23341029195
:100920000021CDE900110A460B46FFF70EFF03B088
:1009300000BDFEE7314A10B52F491378C8545B1C3F
:10094000D8B210700C780023552C53D10B2852D3F9
:10095000487850380A284DD2DFE800F0050D151D03
:10096000252D353B414751F8020FC2F80200486877
:10097000C2F806003EE051F8020FC2F80A004868CB
:10098000C2F80E0036E051F8020FC2F812004868B3
:10099000C2F816002EE051F8020FC2F81A0048689B
:1009A000C2F81E0026E051F8020FC2F82200486883
:1009B000C2F826001EE051F8020FC2F82A0048686B
:1009C000C2F82E0016E051F8020F50634868906399
:1009D00010E051F8020FD063486810640AE051F843
:1009E000020F50644868906404E051F8020FD0642C
:1009F00048681065137010BDF00100203000002021
:100A0000704772B6FEE7000070B5044600F004F9C6
:100A10000546601C02D004480078044400F0FCF84D
:100A2000401BA042FAD370BD040000202DE9F84F0E
:100A3000DFF8B891002409F1040A0AF1040B2346F7
:100A40000F270BF1040EC9E00125A5402A40AA4258
:100A50007DD1674ED1F804C0ACEB0608B44532D066
:100A600014DCBCF1030F3AD009DCBCF1000F2AD032
:100A7000BCF1010F1CD0BCF1020F31D11DE0BCF163
:100A8000110F17D0BCF1120F2AD119E0B8F5881F49
:100A900019D006DCB8F5803F15D0B8F5801F1FD1FE
:100AA00011E0B8F5001F0ED0B8F5041F18D10AE008
:100AB000CB6815E0CB681B1D12E0CB6808330FE054
:100AC000CB680C330CE08B682BB1012B4FF0080383
:100AD00003D0456104E0042302E0056100E0002347
:100AE000FF2A01D8064601E000F104064FEA84051A
:100AF00001D9A5F12005D6F8008007FA05FC28EAFF
:100B00000C0803FA05F548EA0508C6F800804D68A8
:100B1000ED0062D5374DAE6946F00106AE61AD69B4
:100B200024F0030605F001050095334D06EB050C96
:100B3000DCF80850A607360F07FA06F825EA08057C
:100B4000DFF8B880404503D14FF0000817E044E0DB
:100B5000DFF8AC80404502D14FF001080FE0DFF82C
:100B6000A480404502D14FF0020808E0DFF89880E9
:100B7000404502D14FF0030801E04FF0040808FAA5
:100B800006F848EA0508CCF808804D68D9F80060F6
:100B9000ED034D4601D5164300E096432E604D68A7
:100BA000DAF80060AD03554601D5164300E09643E0
:100BB0002E604D68DBF80060ED025D4601D51643FE
:100BC00000E096432E604D68DEF80060AD02754689
:100BD00001D5164300E096432E60641C0D682A463A
:100BE000E5407FF431AFBDE8F88F0000000401401C
:100BF00000001110001002400000014000080140F8
:100C0000000C014000100140001401400AB10161D4
:100C100070470904FBE70000014880687047000046
:100C20000400002002488168027811448160704706
:100C300004000020074810B5016841F01001016070
:100C4000032000F075F8002000F006F800F024F80A
:100C5000002010BD0020024070B50D4D04464FF439
:100C60007A712878B1FBF0F00A490968B1FBF0F01D
:100C700000F062FB48B9102C07D200222146501E1A
:100C800000F036F800206C6070BD012070BD0000DF
:100C900004000020100000200C4808B5816941F0D4
:100CA00001018161816901F001010091C16941F097
:100CB0008051C161C06900F08050009004484168D3
:100CC00021F0E06141F00071416008BD0010024078
:100CD00000000140002809DB00F01F0201219140C3
:100CE0004009800000F1E020C0F8001170470000CA
:100CF000F0B40E4B1B680C46C3F30223C3F1070587
:100D0000042D00D90425191D072901D2002300E074
:100D1000DB1E012606FA05F1491E214099409E403E
:100D2000761E16403143F0BC01F0F9B80CED00E03E
:100D3000064900F0070208684FF6FF03184040EA32
:100D40000220034A10430860704700000CED00E0E9
:100D50000000FA052DE9F84305460078354CC00738
:100D600054D0E0690026C00008D4E06940F080500B
:100D7000E061E069012600F0805000902E48016893
:100D8000C90512D40168804641F480710160FFF703
:100D900043FF074605E000BFFFF73EFFC01B642886
:100DA00023D8D8F80000C005F6D5206A10F44070AA
:100DB00021D0A98801F4407181421CD0206A1F49CA
:100DC000012220F440700A6000220A602062C007FD
:100DD00011D0FFF721FF074641F2883808E000BF35
:100DE000FFF71AFFC11B414502D90320BDE8F88374
:100DF000206A8007F4D5206A696820F440700843AF
:100E000020621EB1E06920F08050E0612878800700
:100E100005D56068A96820F44040084360602878E0
:100E2000C00605D56068E96820F48000084360606A
:100E30000020DBE700100240007000404004424206
:100E40002DE9F0470F46050061D0434E306800F0B1
:100E50000700B84209D2306820F0070038433060FC
:100E6000306800F00700B84251D128683B4C810738
:100E700012D5400703D5606840F4E06060602878D0
:100E8000000703D5606840F4605060606068A9683E
:100E900020F0F000084360602878C00728D0686818
:100EA000012810D02168022810D0890700292EDAE5
:100EB000616821F0030101436160FFF7ADFE8046E8
:100EC00041F288390DE021688903EFE78901EDE7F8
:100ED000FFF7A2FEA0EB0801494502D90320BDE8B7
:100EE000F0876068696800F00C00B0EB810FEFD10B
:100EF000306800F00700B8420BD9306820F00700D6
:100F000038433060306800F00700B84201D001205B
:100F1000E5E72878400705D56068E96820F4E060D7
:100F2000084360602878000706D56068296920F4C6
:100F3000605040EAC100606000F038F86168084A1B
:100F4000C1F30311515CC8400649086006480068B7
:100F5000FFF782FE0020C2E700200240001002409E
:100F600090290008100000200800002004480549CE
:100F700000684968044AC1F30221515CC8407047C7
:100F80001000002000100240A02900080448054974
:100F900000684968044AC1F3C221515CC8407047E7
:100FA0001000002000100240A029000812A185B006
:100FB0000FC98DE80F0014A0144A0068049051680E
:100FC000134801F00C03042B10D0082B0ED1C1F3F1
:100FD0008343C9031DF803000AD5516804AAC1F36D
:100FE0004041515C0A4A5043B0FBF1F005B07047F4
:100FF00008494843FAE70000020304050607080908
:101000000A0B0C0D0E0F1010010200000010024020
:1010100000127A0000093D002DE9F84F040070D05D
:101020002078C04DC00749D06868C0F3810001280E
:1010300007D06868C0F38100022809D16868C0033E
:1010400006D52868800339D560680028E7D035E0E8
:101050006068B0F5803F0BD010B1B0F5A02F11D073
:10106000286820F480302860286820F4802002E07E
:10107000286840F480302860606890B1FFF7CCFDAC
:1010800006460AE0286840F480202860F0E700BFA8
:10109000FFF7C2FD801B642873D828688003F7D54A
:1010A0000CE0FFF7B9FD064605E000BFFFF7B4FD11
:1010B000801B6428F0D828688003F7D420789A4EE3
:1010C00080074FF001094FF0000839D5686810F02B
:1010D0000C0F07D06868C0F38100022809D1686846
:1010E000C00306D42868800714D52069012808D1D8
:1010F00010E02069B0B1C6F80090FFF78DFD0746FB
:1011000005E00AE1FFF788FDC01B0228C4D8286863
:101110008007F7D52868616920F0F80040EAC1002F
:1011200028600DE0C6F80080FFF776FD074604E072
:10113000FFF772FDC01B022823D828688007F7D468
:10114000207800072CD57948A169D9B1C0F8009062
:10115000FFF762FD074604E0FFF75EFDC01B0228B3
:101160000FD8686A8007F7D571484FF4FA510068C4
:10117000B0FBF1F0009000BF0098411E0091FAD240
:101180000EE080E0C0F80080FFF746FD074604E06F
:10119000FFF742FDC01B022875D8686A8007F7D4A4
:1011A0002078400760D5E8690027C00008D4E869C6
:1011B00040F08050E861E869012700F0805000901D
:1011C0005C480168C90513D40168834641F4807105
:1011D0000160FFF721FD824606E000BFFFF71CFD1E
:1011E000A0EB0A0064284ED8DBF80000C005F5D556
:1011F000E06801280AD008B1052813D0286A20F039
:1012000001002862286A20F0040002E0286A40F009
:1012100001002862E06841F2883B98B1FFF7FCFCCE
:1012200082460BE0286A40F004002862EEE700BF27
:10123000FFF7F2FCA0EB0A0159455AD8286A80074B
:10124000F6D50CE0FFF7E8FC824605E0FFF7E4FC8A
:10125000A0EB0A0159454CD8286A8007F6D41FB183
:10126000E86920F08050E861E06988B36968C1F3FB
:101270008101022944D00228C6F8608004D0FFF71B
:10128000CBFC044638E034E0FFF7C6FC074604E038
:10129000FFF7C2FCC01B02282BD828688001F7D4B6
:1012A000206AB0F5803F05D16868A16820F400305D
:1012B00008436860D4E908010843696821F474119F
:1012C00008436860C6F86090FFF7A6FC044606E095
:1012D00025E000BFFFF7A0FC001B022809D8286802
:1012E0008001F7D51BE000BFFFF796FC001B02282A
:1012F00002D90320BDE8F88F28688001F4D40EE0FD
:101300000128F7D06868226A00F48031914204D144
:10131000616A00F47010884201D00120EAE70020E1
:10132000E8E7000000100240000042428004424210
:10133000100000200070004010B5401EB0F1807F0A
:1013400001D3012010BD4FF0E02460610F21601730
:1013500000F0E5FD0020A06107202061002010BD05
:1013600070B590F83C20012A26D0012480F83C403A
:10137000022280F83D2003685A689D6822F07006BA
:101380000A6832435A600D4B02689A4208D0B2F1A3
:10139000804F05D00A4B9A4202D00A4B9A4204D1A0
:1013A000496825F080031943916080F83D40002191
:1013B00080F83C10084670BD022070BD002C014032
:1013C000000400400008004000B585B000210091F5
:1013D00001910291039100680B49884212D10B4898
:1013E000816941F0080181618069694600F0080067
:1013F00004904FF470700090022001900390044814
:10140000FFF714FB05B000BD0008004000100240CB
:10141000000C014070B5044690F83C000D460128D0
:101420000AD0012084F83C0042B1042A18D0082ACE
:101430002AD00C2A4DD139E0022070BD206800F07E
:1014400043FC2068816941F008018161206881695D
:1014500021F004018161206881692A69114311E04A
:10146000206800F059FC2068816941F400618161C5
:101470002068816921F480618161206881692A691D
:1014800041EA0221816124E0206800F071FC2068BB
:10149000C16941F00801C1612068C16921F00401FE
:1014A000C1612068C1692A69114311E0206800F018
:1014B0008BFC2068C16941F40061C1612068C16989
:1014C00021F48061C1612068C1692A6941EA022171
:1014D000C161002084F83C0070BD10B5040003D049
:1014E00094F83D0010B107E0012010BD002084F801
:1014F0003C00204600F01EF8022084F83D00211D2B
:10150000206800F09DFB012084F8460084F83E002E
:1015100084F83F0084F8400084F8410084F84200D9
:1015200084F8430084F8440084F8450084F83D00C2
:10153000002010BD08B500680649884208D1064859
:10154000C16941F00401C161C06900F0040000906C
:1015500008BD0000000800400010024010B504461D
:10156000022249B104290ED0082913D094F8410071
:10157000012816D0012010BD94F83E000128F9D1B1
:1015800084F83E200FE094F83F000128F2D184F85F
:101590003F2008E094F840000128EBD184F8402077
:1015A00001E084F841200122206800F07FFB0F4910
:1015B0002068884203D1426C42F4004242642068B1
:1015C000884208D0B0F1804F05D00949884202D046
:1015D0000849884204D1816801F00701062903D037
:1015E000016841F001010160002010BD002C0140A4
:1015F000000400400008004070B5040004D094F8D6
:101600003D00002510B106E0012070BD84F83C507B
:10161000204600F023F8242084F83D002068C168AB
:1016200021F40051C160204600F0F0FB2068016900
:1016300021F4904101612068416921F02A01416152
:101640002068C16841F40051C1602564202084F8FD
:101650003D0084F83E00002070BD000030B585B02C
:10166000002400940194029403940068184988426D
:101670002BD11848C16941F40031C161C16901F43D
:1016800000310491816941F0040181618069124D4A
:1016900000F0040004900420009002200190032038
:1016A000039069462846FFF7C1F90820CDE90004F8
:1016B000694628460294FFF7B9F900221146262010
:1016C000FFF716FB2620FFF705FB05B030BD000035
:1016D000004400400010024000080140FEE7000006
:1016E0002DE9F04186B0002423480094019402942F
:1016F0000394816941F010018161816901F0100159
:101700000491816941F020018161816901F020012A
:101710000491816941F004018161816901F0040152
:101720000491816941F0080181618069012200F022
:101730000800124F5503049029463846FFF766FA11
:10174000DFF83C80002201214046FFF75FFA009558
:10175000022601250396CDE9015469463846FFF774
:1017600065F903960095CDE9015469464046FFF7B7
:101770005DF906B0BDE8F0810010024000100140A4
:101780000008014010B58AB0002407941C21684667
:101790000894FEF7DEFC2348214901604821C0E996
:1017A00001144FF47A71C0E903148461FFF795FEC8
:1017B00008B1FFF726F9079407A91A480894FFF71C
:1017C000CFFD08B1FFF71DF96020CDE900040294B8
:1017D0000022694613480494FFF71CFE08B1FFF786
:1017E00010F9042269460F48FFF714FE08B1FFF70D
:1017F00008F9082269460B480194FFF70BFE08B16F
:10180000FFF7FFF80C22694606480194FFF702FE35
:1018100008B1FFF7F6F80348FFF7D6FD0AB010BD90
:1018200000080040940000200C4810B50A490160EF
:101830004FF4E1314160002181600C22C160C0E9B8
:1018400004128161C161FFF7D7FE002803D0BDE813
:101850001040FFF7D6B810BD00440040DC00002067
:10186000FEE700002DE9F0474E4E4D4C0025B069D3
:10187000401DB061FEF76EFE2146FEF7FFFCFEF74D
:101880009EFE494A494BFEF7EAFDFEF7DBFE814624
:1018900047497068FEF7F2FCFEF791FE00F086FE05
:1018A0004FF04042434BFEF7DAFDFEF7CBFE044615
:1018B000307810B1012802D002E03F4D00E03F4DEA
:1018C0004846FEF77CFE01F013F806460F46204618
:1018D000FEF775FE8846044632463B46FEF7BFFDDE
:1018E000FEF7B0FE064629464846FEF73DFCFEF7E9
:1018F00066FE00F0FDFF22464346FEF7B0FDFEF710
:10190000A1FE0446304600F0F5F82D4D284600F0C3
:10191000EBF8204600F04CF9284600F043F9294C3A
:10192000606800F08FF8E06204F14005686800F03C
:10193000E7F8E862E06AFEF712FEDFF88C80DFF875
:101940008C9042464B46FEF78AFD06460F46E86AF3
:10195000FEF705FE42464B46FEF781FD32463B460A
:10196000FEF777FDFEF70CFE0646E86AFEF7F7FD88
:1019700042464B46FEF773FD07460D46E06AFEF70A
:10198000EEFD42464B46FEF76AFD3A462B46FEF711
:10199000BFFCFEF7F5FD3146BDE8F04700F030B87A
:1019A000CDAC9E44140000206E861BF0F921194036
:1019B0000000B042DCA54C40D80FC93FE2CB9640B6
:1019C00000803B452001002039B4C876BE9FE63F29
:1019D0000149086070470000340800400149086070
:1019E0007047000038080040014908607047000057
:1019F0003C08004001490860704700004008004072
:101A000070B50C46050003D4FFF7E2FF002003E0A9
:101A10000020FFF7DDFF6842FFF7ECFF002C4FF0DE
:101A2000000006DBFFF7E0FF2046BDE87040FFF74F
:101A3000D5BFFFF7D3FF6042BDE87040FFF7D4BFCA
:101A4000FEE700002DE9F047244C2168FEF7E1FB9A
:101A50008146FEF7B4FDD4E90223FEF759FC0022CB
:101A60001F4BC4E90201FEF7D5FD02D200201C493C
:101A700008E0D4E9020100221A4BFEF7B3FD03D2BD
:101A800018490020C4E902014846E169FEF7BEFB9F
:101A90000146C4F81C90A069FEF7BEFBFEF78FFD5F
:101AA000064688466069FEF78AFDD4E90223FEF700
:101AB000D6FC07460D4649462069FEF7ADFBFEF70A
:101AC0007EFD3A462B46FEF723FC32464346FEF7A0
:101AD0001FFCBDE8F047FEF753BD0000A001002049
:101AE00000F8A14000F8A1C00149886170470000DA
:101AF000A00100200149086070470000A0010020FB
:101B00002DE9F047244C2168FEF783FB8146FEF760
:101B100056FDD4E90223FEF7FBFB00221F4BC4E96C
:101B20000201FEF777FD02D200201C4908E0D4E94B
:101B3000020100221A4BFEF755FD03D2184900207E
:101B4000C4E902014846E169FEF760FB0146C4F8BA
:101B50001C90A069FEF760FBFEF731FD0646884643
:101B60006069FEF72CFDD4E90223FEF778FC0746F6
:101B70000D4649462069FEF74FFBFEF720FD3A4629
:101B80002B46FEF7C5FB32464346FEF7C1FBBDE8D8
:101B9000F047FEF7F5BC0000C801002000F8A140A6
:101BA00000F8A1C00149886170470000C801002009
:101BB0000149086070470000C80100207047704765
:101BC000FFF730B830B593B028216846FEF7C1FA68
:101BD00014210AA8FEF7BDFA002501200F951095E3
:101BE0001195010412958DE8230004904FF4E01044
:101BF000CDE90810022407946846FFF70DFA08B1F2
:101C000072B6FEE70AA90F2081E831004FF4806028
:101C1000CDE90D0502210AA8FFF712F908B172B645
:101C2000FEE74FF4004011900F940FA8FFF792F8D1
:101C3000002801D072B6FEE713B030BD7047000037
:101C4000F0B50268164B174C174D4FF0804798427D
:101C500005D0B84203D0A04201D0A84203D122F05F
:101C600070064A683243984205D0B84203D0A04279
:101C700001D0A84203D122F44074CA6822434C69BF
:101C800022F08002224302608A68C2620A6882628D
:101C9000984201D10969016301214161F0BD000051
:101CA000002C0140000400400008004010B501F085
:101CB0001F030121046A99408C430462016A9A401F
:101CC0001143016210BD000030B5026A22F001022A
:101CD0000262026A4368846924F073050C682C432D
:101CE00022F002058A682A430A4DA8420BD122F04D
:101CF0000805CA6823F440732A434D6922F00402A0
:101D00001D438B692B4343608461496841630262D0
:101D100030BD0000002C014030B5026A22F01002F4
:101D20000262026A436884690D6824F4E64444EA66
:101D300005248D6822F0200242EA05120B4DA842CC
:101D40000ED1CD6822F0800242EA05124D6923F4DB
:101D5000406343EA85038D6922F0400243EA85032C
:101D60004360846149688163026230BD002C014098
:101D700030B5026A22F480720262036A4268C46962
:101D800023F4007324F073050C682C438D6843EA38
:101D900005230C4DA8420ED1CD6823F4006343EA1D
:101DA00005234D6922F4405242EA05128D6923F45D
:101DB000806342EA05124260C4614968C1630362FC
:101DC00030BD0000002C014030B5026A22F4805280
:101DD0000262046A4268C3690D6823F4E64343EA79
:101DE00005238D6824F4005444EA0534064DA842C6
:101DF00004D14D6922F4804242EA85124260C361F7
:101E000049680164046230BD002C014070B504468D
:101E100000680169E26821F44051114301612169C0
:101E2000A0680843616908432168CA6841F20C63ED
:101E30009A430243CA6020684169A26921F4407153
:101E4000114341611E492068884202D1FFF79EF884
:101E500001E0FFF78BF800EBC00101EB00126068B6
:101E600064218000B2FBF0F3B3FBF1F36FF01806CE
:101E70007343B2FBF0F5B2FBF0F605EB83053223BA
:101E800003EB0515B5FBF1F5B6FBF1F605F0F00532
:101E900005EB0615B2FBF0F6B2FBF0F0B0FBF1F08B
:101EA0006FF01802504306EB800003EB0010B0FB0C
:101EB000F1F0216800F00F002844886070BD000038
:101EC00000380140094881B0006880060BD50848F9
:101ED00000680168406800900448001D006801B077
:101EE000C0B2FEF727BD01B07047000000440040BB
:101EF000DC000020FEE7490050EAC12018BF0420A2
:101F00004A0D18BF40F0010040F2FF72B2EB515F82
:101F100008BF40F00200012808BF052070470907EC
:101F2000090E002804DB00F1E02080F8001470475F
:101F300000F00F0000F1E02080F8141D7047000051
:101F40002DE9F74F144694B00021C4E90211159908
:101F5000079121F00045C9498D4206DC1599C4E975
:101F6000000117B00020BDE8F08FC549DFF814A3C9
:101F7000A9423CDD0799C44E0029C44FC44A1599B3
:101F8000534619DDFEF765FA554506D0C14AC24BE6
:101F9000FEF75FFAC4E900010AE04FF0D352BE4BEE
:101FA000FEF757FA32463B46FEF753FAC4E9000102
:101FB00017B00120BDE8F08FFEF7AAF9554506D00D
:101FC000B44AB54BFEF7A4F9C4E900010AE04FF0AA
:101FD000D352B14BFEF79CF932463B46FEF798F9D7
:101FE000C4E9000117B04FF0FF30BDE8F08FAB49F6
:101FF000A942159978DB21F0004183468846A84A1A
:10200000A84BFEF72CFA0022A74BFEF781F9FEF74A
:10201000B7FA0990FEF7A3FA06460F469C4A5346C4
:10202000FEF71DFA43465A46FEF716FA80468A46E0
:10203000984A994B30463946FEF711FA2A0D012588
:102040000B9242465346FEF707FA032DC4E90001FE
:1020500039D00B98C1F30A51401A05EB45111139DB
:10206000814230DA9148C346784400EB0510CDF840
:102070000CA00C90D0E9002330463946FEF7EFF96A
:1020800002460B460491069058460399FEF7E1F983
:1020900080468A4602460B4658460399FEF7D9F910
:1020A000049B069AFEF7D5F983460C9803913946AE
:1020B000D0E902233046FEF7D2F95A46039BFEF7D9
:1020C000C8F96D1CBDE707980028A2BF099817B092
:1020D000BDE8F08F616881F000416160099817B038
:1020E0004042BDE8F08FFFE784461598C1F3130125
:1020F000C0F30A50A0F2F5304FEA601800F01F0656
:10210000C6F12000139000200690079041F4801E35
:1021100005206D4676B1664A08EB00017A4452F814
:10212000213002EB8101B3404A68139922FA01F190
:10213000194305E05F4908EB0002794451F8221089
:10214000A1FB0E27A1FB0C131A449A4234BF0123B2
:10215000002303EB070A05EB8003D3E901B70F4423
:102160008F4234BF0121002193448B4411B1934528
:1021700002D903E0934501D2012100E00021C3E927
:1021800001B7514445F82010011EA0F10100C1DC47
:102190000298059F00F10050800F12900298DDE92F
:1021A00003568000FEF7DBF9834628460D91FEF7C3
:1021B000B3FB6FF01D02FEF785FBCDE90E01304643
:1021C000FEF7AAFB6FF03D02FEF77CFB80468A46D5
:1021D0003846FEF7A1FB6FF05D02FEF773FB074682
:1021E000424653461191FEF793F8DDE90E23FEF7C0
:1021F0008FF85A460D9BFEF78BF800250E465A467F
:1022000028460D9BFEF725F9DDE90E23FEF721F99F
:1022100042465346FEF71DF93A46119BFEF71CF95C
:10222000DFF898A0244A5346FEF719F90746884676
:10223000234A244B31462846FEF711F93A464346D5
:10224000FEF766F8074688464FF0A84253463146E7
:102250002846FEF704F93A464346FEF759F8159A20
:1022600012F0004F04D0129A81F0004152421292B3
:10227000C4E90001129817B0BDE8F08FFB21E93FD7
:102280007CD90240FB21F93F7370032E8A19A33BCE
:10229000000040543163621A61B4D03DFB213941E2
:1022A00083C8C96D305FE43F0000E03F040A0000CE
:1022B0008009000062090000182D4454FB21F93DFB
:1022C0003326A611460B113C2DE9FF4D21F00048A5
:1022D00007460C46B8F1795F08DAFEF751F9002895
:1022E00001BF0020324904B0BDE8F08D3A462346D4
:1022F00010461946FEF7B3F8054602462D480E462D
:102300000B460621784400F05DF82A463346FEF776
:10231000A6F8DDE9022382468B4638462146FEF7C1
:102320009EF804460F4652465B4628463146FEF765
:1023300096F822463B46FEF78CF807468A464FF051
:10234000FF3228463146FEF7BDFA1B4A90450ADAAD
:102350003A465346FEF77DF804B00022BDE8F04D42
:10236000134BFEF779B8154A4245A8BFA8F50015EA
:102370004FF00004B8BF124D22462B46FEF769F815
:102380000646884622462B4600200949FEF761F89A
:1023900004460D463A46534630464146FEF759F844
:1023A00004B022462B46BDE8F04DFEF755B80000BC
:1023B0000000F03F380700003333D33F0000E93F0F
:1023C0000000D23F2DE9F0414F1E00EBC70104464B
:1023D000D1E9000115461E4637F006020DD02A4607
:1023E0003346FEF73CF87F1E04EBC703D3E9002316
:1023F000FDF78EFF37F00602F1D1022F25D0042F12
:1024000013D0062F18BFBDE8F0812A463346FEF7E9
:1024100026F8D4E90A23FDF77BFF2A463346FEF768
:102420001EF8D4E90823FDF773FF2A463346FEF76A
:1024300016F8D4E90623FDF76BFF2A463346FEF76C
:102440000EF8D4E90423FDF763FF2A463346FEF76E
:1024500006F8D4E90223FDF75BFF2A463346FDF771
:10246000FEFFD4E90023BDE8F041FDF751BF0000B5
:102470002DE9FF4D054621F0004084B00C46B0F137
:10248000795F0BDA2846FFF736FD042808BF00F015
:102490006FF8284608B02146BDE8F08D2A460B4665
:1024A0001046FDF7DCFF06460F462A462346FDF799
:1024B000D6FF804626488A4632463B460521784468
:1024C000FFF780FF83461098029160B3214A224BA8
:1024D00040465146FDF7C3FFCDE900015A4640464C
:1024E0005146029BFDF7BBFF82468846DDE90601A7
:1024F0004FF0FF32FEF7E6F952464346FDF7A9FFDB
:1025000032463B46FDF7ABFFDDE90623FDF7A1FFB1
:10251000DDE90023FDF79DFF08B02A462346BDE80C
:10252000F04DFDF799BF0B465A4630463946FDF748
:1025300096FF084A084BFDF7EBFE42465346FDF76F
:102540008EFF08B02A462346BDE8F04DFDF7E0BEF9
:1025500076060000495555555555C5BF0122FEF771
:10256000B1B90022134610461146FEF73CB90000EF
:10257000024A00201107FEF7A5B9000001FDFFFF88
:1025800002E008C8121F08C1002AFAD1704770473C
:10259000002001E001C1121F002AFBD1704700009A
:1025A0000149086070470000840000202DE9F84FC1
:1025B00004460D4621F0004000917349814211DC30
:1025C0007249884201DC06D12CB120462946BDE87B
:1025D000F84FFFF7C3BF6E48002DCCBF6D496E4961
:1025E000BDE8F88F6D49814211DD6D498142D8BF48
:1025F0004FF0FF366DDD20462946FFF77CFC0428AE
:1026000008BFFFF7B5FF20462946BDE8F88F6549AA
:10261000654F25F00045814233DD6449814219DD73
:10262000002632464FF0804320462946FDF770FED3
:1026300080468A46012220462946FEF743F90022B9
:102640003B46FDF706FF42465346FEF7CCF80446EC
:102650000D463EE001260022BA463B46204629466A
:10266000FDF756FE80460F46002253462046294677
:10267000FDF7EFFE42463B46FEF7B5F804460D4631
:1026800027E04B4981421BDDDFF828A1022600220A
:10269000534620462946FDF7E2FE00223B46FDF761
:1026A00037FE80460F460022534620462946FDF756
:1026B000D0FE42463B46FEF796F804460D4608E03B
:1026C000032622462B4600203B49FEF78CF80446A1
:1026D0000D4622462B4610461946FDF7C0FE8B4696
:1026E000824602460B46FDF7BAFE074602463348CD
:1026F00088460B4606217844FFF764FE52465B4647
:10270000FDF7ADFE82462E488B463A4643460521EC
:102710007844FFF757FE3A464346FDF7A0FE0246CF
:102720000B46002E504659460CDAFDF7F1FD2246C5
:102730002B46FDF794FE01B022462B46BDE8F04F34
:10274000FDF78ABEFDF7E4FD22462B46FDF787FE26
:102750001C4A7A4402EBC603D3E90023FDF779FE55
:1027600022462B46FDF775FE174A7A4402EBC60354
:10277000D3E90023FDF770FE009A002AB8BF81F06C
:102780000041BDE8F88F0000000010440000F07F19
:10279000182D4454FB21F93FFB21F9BF0000DC3F19
:1027A0000000203E0000F33F0000F03F0000E63F45
:1027B000008003400000F83F0000F0BF1603000057
:1027C000D4020000720200003A020000FEF732FA62
:1027D000FFF7F8F9FEF784FFFEF7D4FFFFF724F8C0
:1027E000DFF8E4B0012211465846FEF70FFA3748E9
:1027F0000068C16841F02001C16000213448FEF743
:10280000ADFE04213248FEF7A9FE08213048FEF74C
:10281000A5FE0C212E48FEF7A1FE41F28830FEF7FE
:10282000F3F8DFF8B0A000BFFEF7F6F9DAF8001011
:102830005446401A0528F7D3FEF7EEF92060264CDF
:10284000B4F90000FDF77DFE6FF00E084146FDF77C
:1028500053FDDFF888904946FDF7DEFC204D064623
:102860002860B4F90200FDF76CFE4146FDF744FD17
:102870004946FDF7D1FC07466860B4F90400FDF74E
:1028800060FE4146FDF738FD4946FDF7C5FCA860EE
:102890001448476014484660FEF7E4FFFEF7BCF9B1
:1028A00044F620618842BFD9002201215846FEF734
:1028B000ADF90E4900200860091D0860091D086077
:1028C000091D0860FEE7000000080140DC00002050
:1028D00094000020000000204A0000200000344343
:1028E0008800002020010020600100203408004002
:1028F00000B5254B21F0004287B09A4203DC00224C
:10290000134600922BE0214B9A4208D140B94FF078
:102910000100FFF745FEFFF724FE07B000BD03DB13
:10292000FFF71CFE07B000BD02AAFFF709FB10F07D
:1029300003014FF001000DD0012914D002291AD053
:102940000DF1080C9CE80F00FFF7BEFC07B081F00A
:10295000004100BD0DF1080C00909CE80F00FFF74E
:1029600087FD07B000BD0DF1080C9CE80F00FFF7D4
:10297000ABFC07B000BD0DF1080C00909CE80F0007
:10298000FFF776FDE2E70000FB21E93F0000F07F62
:10299000000000000000000001020304060708090F
:1029A00000000000010203044FBB610567ACDD3F7E
:1029B000182D4454FB21E93F9BF681D20B73EF3F66
:1029C000182D4454FB21F93FE2652F227F2B7A3CDE
:1029D000075C143326A6813CBDCBF07A8807703C97
:1029E000075C143326A6913CC4EB98999999C9BF0A
:1029F000711623FEC671BCBF6D9A74AFF2B0B3BF3F
:102A00009AFDDE522DDEADBF2F6C6A2C44B4A2BFFE
:102A10000D5555555555D53FFF8300922449C23F6A
:102A20006E204CC5CD45B73F513DD0A0660DB13F9E
:102A3000EB0D76244B7BA93F11DA22E33AAD903FB0
:102A40004C5555555555A53F7751C1166CC156BFCC
:102A50009015CB19A001FA3EAD529C804F7E92BEDC
:102A6000C4B1B4BD9EEE213ED43888BEE9FAA8BDFB
:102A700000004054FB21F93F3163621A61B4D03D3C
:102A80000000601A61B4D03D7370032E8A19A33B15
:102A90000000002E8A19A33BC14920259A837B3967
:102AA00000000000000000006E83F9A22915444ECA
:102AB000D15727FCC0DD34F5999562DB4190433C4A
:102AC000AB6351FE61C5BBDE3A6E24B7E0D24D4226
:102AD000EA2E49061C92D1091CEB1DFE3EA729B126
:102AE000F53582E88444BB2E26709CE9417E5FB4B4
:102AF00039D69139F43953838B5F849C3B28F9BDD7
:102B0000FF97F81F0F9805DE8B112FEF1F6D0A5AE4
:102B1000CF7E366DB709CB27663F464F2DEA5F9EC5
:102B2000C7BA27757BF1E5EBF739073DEA92528A80
:102B3000B15FFB6B085D8D1FA6F810111111813F6D
:102B4000D561C119A0012ABF7DFEB157E31DC73E63
:102B5000EB9C2B8AE6E55ABE7CD5CF5A3AD9E53DA7
:102B6000802B00080000002088000000802500085D
:102B7000082C000888000020680600009025000846
:102B80000000000001000000100000000000000034
:102B90000024F400000000000000F04100000000EC
:102BA0000000000000000000000000000000000025
:102BB0000000000000000000000000000000000015
:102BC0000000000000000000000000000000000005
:102BD00000000000000000000000000000000000F5
:102BE00000000000000000000000000000000000E5
:102BF00000000000000000000000000000000000D5
:082C00000000000000000000CC
:04000005080000ED02
:00000001FF
