:020000040800F2
:10000000180E0020A9010008D51D0008D11A00080B
:10001000951D00080F080008E926000800000000F0
:10002000000000000000000000000000D11F0008D8
:100030005909000800000000811F0008D31F0008B4
:10004000C3010008C3010008C3010008C301000880
:10005000C3010008C3010008C3010008C301000870
:10006000C3010008C3010008C3010008C301000860
:10007000C3010008C3010008C3010008C301000850
:10008000C3010008C3010008C3010008000000000C
:10009000000000000000000000000000C301000894
:1000A000C3010008C3010008C3010008C301000820
:1000B000C3010008C3010008C3010008C301000810
:1000C000C3010008C3010008C3010008C301000800
:1000D000C30100088D23000821240008000000004F
:1000E000C3010008C3010008C301000800000000AC
:1000F000000000000000000000000000C301000834
:1001000000000000C3010008C3010008C30100088B
:1001100000000000000000000000000000000000DF
:10012000C3010008C3010008C3010008C30100089F
:10013000C3010008000000000000000000000000F3
:10014000000000000000000000000000C3010008E3
:10015000C3010008C3010008C3010008C30100086F
:10016000C3010008C30100080000000000000000F7
:10017000000000000000000000000000000000007F
:1001800000000000C30100080000000000000000A3
:10019000C3010008DFF80CD000F01AFB004800474C
:1001A000A9370008180E0020064880470648004777
:1001B000FEE7FEE7FEE7FEE7FEE7FEE7FEE7FEE717
:1001C000FEE7FEE76D200008950100082DE9F05FCD
:1001D0000546002092469B468846064681464024B6
:1001E0001BE0284641464746224600F0CBF95346DD
:1001F0005A46C01A914110D311461846224600F0C3
:10020000B2F92D1A67EB01084F4622460120002162
:1002100000F0A9F917EB00094E41201EA4F10104DA
:10022000DFDC484631462A464346BDE8F09F40EAB7
:1002300001039B0703D009E008C9121F08C0042A64
:10024000FAD203E011F8013B00F8013B521EF9D24B
:100250007047D2B201E000F8012B491EFBD2704773
:100260000022F6E710B513460A4604461946FFF782
:10027000F0FF204610BD2DE9FE4F804681EA0300C5
:10028000C00F0C46009021F0004123F00045B8EB70
:100290000200A94105D24046214690461C460B4625
:1002A000024623F00040104347D0270DC7F30A0051
:1002B000C3F30A510290401A019040286BDAC3F34D
:1002C000130040F4801B0098924620B10023D2EB2B
:1002D000030A63EB0B0B01985946C0F140025046EC
:1002E00000F041F906460D4650465946019A00F085
:1002F00059F910EB08006141002487EA115284EAA1
:10030000E7731A4340D0009A62B3019A012A4FEA78
:10031000075215DC001B61EB02014FF0004202EABC
:100320000752CDE90042001C41F5801132462B46B0
:1003300000F090F903B0BDE8F08F40462146F9E7A0
:10034000001B61EB0201001C41F5801300185B41AA
:100350002018A2F5001747EB030140EAD570B61943
:100360006D4111E06D084FEA360645EAC0754FEA67
:100370000752001B61EB0201001C41F58011490886
:100380004FEA30000019514132462B4603B0BDE818
:10039000F04F00F050B90098012240000023D0EB4C
:1003A000020263EBE073009821464FEAE074B8EB79
:1003B000000061EB0401E9E783F000435BE781F0B3
:1003C000004158E72DE9FE4F81EA030404F00044A0
:1003D00021F0004100944FF0000B23F0004350EA5D
:1003E00001045ED052EA03045BD0C3F30A54C1F3A4
:1003F0000A552C44A4F2F3340194A0FB0254C1F337
:10040000130141F48011C3F3130343F4801301FB80
:10041000024400FB034E840A970A44EA815447EAE7
:100420008357A4FB076802958D0A05FB07854FEAF1
:10043000932C04FB0C542705029D4FEA065847EA0B
:100440001637B5EB08056EEB070C870E920E47EAE0
:10045000811742EA8312A7FB0201B6EB0B0164EBA2
:1004600000042B0D43EA0C335E1844EB1C50DA46B3
:100470005146E7FB0201C5F313044FEA0B3343EA8D
:1004800014534FEA0432019C43EA0603A4F10C041E
:100490000294009CCDE900B400F0DCF803B0BDE8A4
:1004A000F08F00200146F9E70EB5C10F80EAE07039
:1004B0000844CA07002140F233438DE80E000A4683
:1004C0000B4600F0C7F803B000BD70B5C1F30A5287
:1004D00001F000450024C1F3130140F2FF3341F461
:1004E00080119A4201DA002070BD40F233439A42F3
:1004F000A2F2334203DC524200F044F800E09040A4
:100500002C43F1D0404270BD00F0004230F000407A
:100510000AD0C10D01F56071C0F3160042EA015125
:10052000C20840071143704700200146704701F0A0
:10053000004330B421F0004150EA010206D00A0D18
:10054000A2F56072C1F31301002A02DC30BC002066
:100550007047440F44EAC104C100E01830BC00EB0E
:10056000C25000F031B8202A04DB203A00FA02F130
:10057000002070479140C2F1200320FA03F3194391
:1005800090407047202A04DB203A21FA02F0002133
:10059000704721FA02F3D040C2F120029140084393
:1005A00019467047202A06DBCB17203A41FA02F0A1
:1005B00043EAE07306E041FA02F3D040C2F12002C0
:1005C00091400843194670470029A8BF7047401C56
:1005D000490008BF20F00100704710B4B0FA80FC59
:1005E00000FA0CF050EA010404BF10BC704749B196
:1005F000CCF1200421FA04F411FA0CF118BF012106
:1006000021430843A3EB0C01CB1D4FEA00614FEAE5
:10061000102042BF002010BC704700EBC3501044B4
:100620000029A4BF10BC7047401C490008BF20F03F
:10063000010010BC704710B5141E73F1000408DAF5
:10064000401C41F1000192185B411A4301D120F096
:10065000010010BD2DE9F04D92469B4611B1B1FA53
:1006600081F202E0B0FA80F220329046FFF77BFF81
:1006700004460F4640EA0A0041EA0B0153465A4637
:10068000084313D0114653EA010019D0C8F14002C3
:100690005046FFF777FF05460E46504659464246FC
:1006A000FFF761FF084305D0012004E020463946EA
:1006B000BDE8F08D0020054346EAE0762C43374341
:1006C0000A986305E40AA0EB08000022FD0A44EA48
:1006D00047540A3002D500200146E9E70105101908
:1006E0006941DDE9084500196941BDE8F04DA2E71F
:1006F0002DE9F04D81EA030404F0004B21F00045A0
:1007000014464FF0000A23F0004150EA050220D0C1
:1007100054EA01021DD0C5F30A570246C5F313037C
:10072000C1F31300C1F30A5640F4801543F480135B
:10073000A7EB0608101BD64608F2FD3873EB050040
:1007400002D308F1010801E092185B41B8F1000FF3
:1007500003DA00200146BDE8F08D00204FF480113F
:10076000064684460EE0171B73EB050705D3121BE4
:1007700063EB050306434CEA010C49084FEA3000DD
:1007800092185B4150EA0107EDD152EA030012D002
:1007900082EA040083EA0501084305D0101BAB413F
:1007A00006D20122002306E000224FF0004302E0BF
:1007B0006FF0010253101AEB06004CEB085110EBDE
:1007C0000A0041EB0B01BDE8F04DFFF734BF00001C
:1007D000064C074D06E0E06840F0010394E807008E
:1007E00098471034AC42F6D3FFF7D8FC883A00089B
:1007F000A83A00080EB540F2334102910021CDE93C
:1008000000110A460B46FFF725FF03B000BDFEE7C7
:10081000314A10B52F491378C8545B1CD8B21070F8
:100820000C780023552C53D10B2852D348785038DC
:100830000A284DD2DFE800F0050D151D252D353BAA
:10084000414751F8020FC2F802004868C2F806009A
:100850003EE051F8020FC2F80A004868C2F80E00E4
:1008600036E051F8020FC2F812004868C2F81600CC
:100870002EE051F8020FC2F81A004868C2F81E00B4
:1008800026E051F8020FC2F822004868C2F826009C
:100890001EE051F8020FC2F82A004868C2F82E0084
:1008A00016E051F8020F50634868906310E051F869
:1008B000020FD063486810640AE051F8020F5064D8
:1008C0004868906404E051F8020FD06448681065ED
:1008D000137010BD0C09002044000020016818238B
:1008E000CAB2103AB2FBF3F2054B6FF30901032AC7
:1008F0009B5CC36500D9091D8165084670470000EF
:10090000B038000810B5014600208B698A6A4FF0A4
:10091000C07453B1B3F5005F15D072B1012A0CD089
:10092000022A0AD0032A09D104E01AB1012A06D00A
:10093000022A03D1C96AC90100D5012010BDC96AC4
:10094000A142FAD010BD002AF7D0012AF2D0022A23
:10095000F3D0032AF3D010BD704772B6FEE7000053
:100960002DE9F041044600F073F906465CB100251C
:1009700084F83450022084F835002068016821F0A2
:10098000010101600DE00120BDE8F08100F060F997
:10099000801B052805D920206065032084F83500D8
:1009A000F2E720680068C007F0D12268116820488B
:1009B0000140D4E901031843D4E903363343184313
:1009C00063691843A3691843E3691843236A18430A
:1009D0000843616A042903D1D4E90B13194308437E
:1009E000106020684069666A20F0070130460E43B7
:1009F000012704280CD1A06A0643E06A40B12046D2
:100A0000FFF780FF20B14020606584F83570BAE7B9
:100A1000206846612046FFF761FF94F85C203F2183
:100A200091408160656584F835700020ACE7000076
:100A30003F8010F070B5044600F00AF90546601CCE
:100A400002D004480078044400F002F9401BA042A0
:100A5000FAD370BD040000202DE9F84FDFF8B4A1EF
:100A6000002201240AF1040B03254FF00F090BF1BA
:100A7000040E00BF0B6804FA02F63340B34272D191
:100A80000F7907F00307012F01D0022F16D18768D5
:100A90004FEA420805FA08FC27EA0C07D1F80CC017
:100AA0000CFA08FC4CEA070CC0F808C04768B743CA
:100AB0000E79C6F3001696403E4346600E79F64323
:100AC000B6070DD0C768560005FA06FC27EA0C07E2
:100AD000D1F808C00CFA06FC4CEA070CC0F80CC0B0
:100AE0000E7906F00306022E10D1D60800EB860818
:100AF000D8F8206057074FEAD76C09FA0CF7BE43C5
:100B00000F6907FA0CF73743C8F8207006684FEAF8
:100B1000420C05FA0CF7BE430F7907F0030707FAFA
:100B20000CF7374307604E68F6006DD53A4E3768CC
:100B300047F480473760366822F0030706F48046A2
:100B40000096364E07EB060CDCF8086897073F0F57
:100B500009FA07F826EA0806DFF8C480404503D101
:100B60004FF000081EE04FE0DFF8B880404502D1AA
:100B70004FF0010816E0DFF8B080404502D14FF099
:100B800002080FE0DFF8A480404502D14FF00308CF
:100B900008E0DFF89C80404502D14FF0040801E0F6
:100BA0004FF0070808FA07F848EA0608CCF8088862
:100BB000DAF800605746D1F804C09E435FEACC3CA7
:100BC00000D51E433E60DBF800605F46D1F804C0EC
:100BD0009E435FEA8C3C00D51E433E60DEF8006019
:100BE0007746D1F804C09E435FEACC2C00D51E4363
:100BF0003E60084F0C373E68D1F804C09E435FEA60
:100C00008C2C00D51E433E60521C102AFFF432AFDC
:100C1000BDE8F88F003C01404438024000300140FC
:100C2000000002400004024000080240000C0240A4
:100C300000100240426921EA02030A4043EA0241ED
:100C4000816170470AB1816170470904FBE70000C8
:100C500001488068704700000400002070B504005F
:100C600025D094F83D00002520B984F83C5020465A
:100C700000F0B8F8242084F83D002068016821F0D5
:100C8000010101602068016841F4004101602068B1
:100C9000016821F40041016000F01EFA4D4A6168CC
:100CA000914201D84C4900E04C49884201D20120D0
:100CB00070BD4B492368B0FBF1F15E6826F03F063A
:100CC0000E435E606368934206D94FF496735943AE
:100CD0004FF47A73B1FBF3F12368491C1E6A26F0C6
:100CE0003F06314319626168914210D84900401EA5
:100CF000B0FBF1F2521CC2F30B02042A01D2042011
:100D000022E0B0FBF1F0401CC0F30B001CE0A26835
:100D1000F2B301EBC10303EB0116431EB3FBF6F381
:100D20005B1C43F480431B0549D092B301EBC10225
:100D300002EB0111401EB0FBF1F0401CC0F30B00B0
:100D400040F4804040F400402168CA694CF6FF73CB
:100D50009A431043C861D4E9071001432068026830
:100D600022F0C00211430160D4E90301014320686D
:100D7000826848F2FF339A4311438160D4E9050148
:100D800008432168CA6822F0FF021043C86001E0EE
:100D90000EE016E02068016841F001010160256461
:100DA000202084F83D00256384F83E50002070BD6B
:100DB00001EB4106431EB3FBF6F35B1CB3E70120D6
:100DC000C2E701EB4101401EB0FBF1F0401CC0F353
:100DD0000B00B7E7A086010080841E0000093D00DB
:100DE00040420F0070B586B0044614216846FFF7F4
:100DF00037FA1B492068884230D11A48016841F00F
:100E000001010160016801F001010591016841F0F3
:100E1000020101600068122400F0020005904FF406
:100E20008070012503268DE8710004200490694636
:100E30000D48FFF711FE10208DE871000920049085
:100E400069460A48FFF708FE06481030016841F479
:100E500000010160006800F40000059006B070BD5C
:100E6000005C0040303802400000024000040240B4
:100E700002488168027811448160704704000020B4
:100E80000B4810B5016841F400710160016841F43C
:100E900080610160016841F480710160032000F00D
:100EA0006FF8002000F006F800F024F8002010BDD4
:100EB000003C024070B50D4D04464FF47A7128781D
:100EC000B1FBF0F00A490968B1FBF0F000F0BAFBA1
:100ED00048B9102C07D200222146501E00F030F8ED
:100EE00000206C6070BD012070BD00000400002077
:100EF000100000200A4808B5016841F480410160F3
:100F0000006800F4804000900548001F016841F02F
:100F100080510160006800F08050009008BD000022
:100F200044380240002809DB00F01F0201219140F3
:100F30004009800000F1E020C0F800117047000077
:100F4000F0B40E4B1B680C46C3F30223C3F1070534
:100F5000042D00D90425191D072901D2002300E022
:100F6000DB1E012606FA05F1491E214099409E40EC
:100F7000761E16403143F0BC01F0D0BC0CED00E011
:100F8000064900F0070208684FF6FF03184040EAE0
:100F90000220034A10430860704700000CED00E097
:100FA0000000FA052DE9F0470E46050065D0DFF890
:100FB0001481D8F80000F7B200F00700B04207D261
:100FC00088F80070D8F8000000F00700B04254D153
:100FD00028683D4C810712D5400703D5206840F4AE
:100FE000E05020602878000703D5206840F4604076
:100FF00020602068A96820F0F0000843206028786D
:10100000C0072DD0304968680839012812D002285D
:1010100013D0032811D00968890700292DDA216827
:1010200021F0030101432160FFF712FE814641F2E6
:10103000883A0EE009688903EFE709688901ECE75F
:10104000FFF706FEA0EB0901514502D90320BDE8D8
:10105000F0872068696800F00C00B0EB810FEFD1D9
:10106000D8F80010404601F00701B14207D90770D7
:10107000006800F00700B04201D00120E7E72878BF
:10108000400705D52068E96820F4E0500843206057
:101090002878000706D52068296920F4604040EAD6
:1010A000C100206000F038F82168084AC1F303113C
:1010B000515CC8400649086006480068FFF7FAFE20
:1010C0000020C4E7003C024008380240B83800085D
:1010D0001000002008000020044805490068096845
:1010E000044AC1F38221515CC840704710000020BF
:1010F00008380240C83800080448054900680968F3
:10110000044AC1F34231515CC840704710000020CE
:1011100008380240C8380008154810B5006810F0BB
:101120000C02144813D01449042A0FD0082A0ED1F7
:101130000F4C241F2268236802F03F025B0207D590
:101140002068C0F38810A0FB010106E0084610BD2E
:101150002168C1F38811A1FB00010023FFF736F8D5
:101160002168C1F30141491C4900B0FBF1F010BDF9
:10117000083802400024F40040787D012DE9F84F42
:1011800004006ED02078DFF84C93C007A9F1040565
:101190004AD009F104000168C1F38101012908D096
:1011A0000068C0F3810002280AD1D9F8000040028B
:1011B00006D52868800337D560680028E1D033E081
:1011C0006068B0F5803F10D0B0F5A02F286810D02F
:1011D00020F480302860286820F48020286060682F
:1011E000A8B1FFF735FD06460DE0286840F48030D1
:1011F000F4E740F480202860F7E700BFFFF728FD00
:10120000801B642873D828688003F7D50CE0FFF7AB
:101210001FFD064605E000BFFFF71AFD801B64288E
:10122000F0D828688003F7D42078DFF8AC828007F4
:101230004FF0000A3ED5A748001D016811F00C0FC1
:1012400008D00068C0F3810002280BD1D9F8000053
:10125000400207D42868800716D5E068012800D12D
:1012600012E033E1E068B8B10120C8F80000FFF7F0
:10127000EFFC064605E000BFFFF7EAFC801B0228F2
:10128000C0D828688007F7D52868216920F0F800C1
:1012900040EAC10028600DE0C8F800A0FFF7D8FCC4
:1012A000064604E0FFF7D4FC801B02281FD82868FC
:1012B0008007F7D42078000722D5864F87486169D8
:1012C000703771B101210160FFF7C2FC064604E0EE
:1012D000FFF7BEFC801B022809D838688007F7D5C5
:1012E0000EE0C0F800A0FFF7B3FC064605E082E080
:1012F000FFF7AEFC801B02287DD838688007F7D442
:101300002078400768D5DFF8CCB100270BF13C0B03
:10131000DBF80000C0000BD4DBF8001041F0805176
:10132000CBF80010DBF80000012700F0805000909F
:101330006B4E3068C00510D4306840F48070306067
:10134000FFF786FC009005E0FFF782FC0099401A49
:10135000022850D83068C005F6D55E4EA0686C36BD
:1013600001280FD00528306810D020F0010030602F
:10137000306820F004003060A068B8B1FFF768FC66
:1013800000900FE0306840F00100F4E740F0040006
:101390003060F7E7FFF75CFC0099411A41F28830B2
:1013A000814266D830688007F4D50EE0FFF750FC24
:1013B000009007E0FFF74CFC0099411A41F2883099
:1013C000814256D830688007F4D42FB1DBF8001082
:1013D00021F08051CBF80010A069C8B33D49091D28
:1013E0000968C1F3810102294AD00228504607D07A
:1013F000C8F8600000E03CE0FFF72AFC04463BE050
:101400004746C8F86000FFF723FC064605E000BF2A
:10141000FFF71EFC801B02282BD828688001F7D418
:10142000D4E907010843A16A2E4A490802EB0141A9
:10143000626A41EA8211084394F82C1040EA016183
:10144000C9F8001001203866FFF702FC044606E0E8
:101450003EE000BFFFF7FCFB001B022809D828680C
:101460008001F7D534E000BFFFF7F2FB001B022834
:1014700002D90320BDE8F88F28688001F4D427E062
:101480000128F7D0D9F80000E26900F48001914208
:101490001CD1226A00F03F01914217D147F6C0717A
:1014A000626A0140B1EB821F10D1A26A4FF0FF3394
:1014B00000F4403103EB5202B1EB024F06D194F835
:1014C0002C1000F07060B0EB016F01D00120D1E76B
:1014D0000020CFE70438024000004742800E474218
:1014E000007000400000FFFF70B5040009D0606A82
:1014F000002540B125616561A56294F8510040B1B5
:101500000CE0012070BD6068B0F5827FF4D0E56129
:10151000F2E784F85050204600F044F8022084F8A6
:1015200051002068016821F040010160A0882189F4
:1015300000F4827001F404410843A18901F40061C0
:101540000843217C01F002010843217D01F00101E3
:101550000843218B01F400710843217F01F0380119
:10156000084394F8201001F080010843218D01F414
:101570000051084321680860A069042101EA104075
:1015800094F8241001F01001084321684860206895
:10159000C16921F40061C1616565012084F85100D1
:1015A000002070BD70B586B0064614216846FEF76F
:1015B00057FE1F493068884237D11E480025016810
:1015C00041F480510160006800F480500590194892
:1015D0001438016841F0010101600068694600F0BB
:1015E00001000590E02000900220CDE901050320D4
:1015F0000390052004901048FFF72EFA104C0F4876
:1016000020604FF0C06060604020C4E902052561A1
:101610006561A561E561256220466562FFF7A0F975
:1016200008B1FFF79AF9B464A66306B070BD000074
:10163000003001404438024000000240886402400B
:101640004801002010B5401EB0F1807F01D3012079
:1016500010BD4FF0E02460610F21601701F05EF9CA
:101660000020A06107202061002010BD70B590F817
:101670003C20012A2CD0012480F83C40022280F832
:101680003D2003685A689D6822F070060A6832435C
:101690005A60104B02689A420ED0B2F1804F0BD0C4
:1016A0000D4B9A4208D00D4B9A4205D00C4B9A42F2
:1016B00002D00C4B9A4204D1496825F080031943AB
:1016C000916080F83D40002180F83C10084670BDD4
:1016D000022070BD000001400004004000080040EE
:1016E000000C00400040014010B586B004461421B3
:1016F0006846FEF7B5FD0E492068884215D10D48B1
:101700000021026842F002020260006800F002005C
:1017100005904FF4707000900220CDE90101CDE9F1
:10172000031069460448FFF797F906B010BD0000A2
:1017300000080040303802400004024070B5044602
:1017400090F83C000D4601280AD0012084F83C00A6
:1017500042B1042A18D0082A2AD00C2A4DD139E0E7
:10176000022070BD206800F0E9FC2068816941F02A
:10177000080181612068816921F00401816120688C
:1017800081692A69114311E0206800F0FFFC20689C
:10179000816941F4006181612068816921F480617F
:1017A0008161206881692A6941EA0221816124E01E
:1017B000206800F017FD2068C16941F00801C1618F
:1017C0002068C16921F00401C1612068C1692A69EA
:1017D000114311E0206800F031FD2068C16941F437
:1017E0000061C1612068C16921F48061C161206824
:1017F000C1692A6941EA0221C161002084F83C00E4
:1018000070BD10B5040003D094F83D0010B107E09E
:10181000012010BD002084F83C00204600F01EF896
:10182000022084F83D00211D206800F02DFC0120DD
:1018300084F8460084F83E0084F83F0084F84000B5
:1018400084F8410084F8420084F8430084F844009E
:1018500084F8450084F83D00002010BD08B50068FC
:101860000649884208D10648016841F00401016038
:10187000006800F00400009008BD0000000800406F
:101880004038024010B50446022249B104290ED066
:10189000082913D094F84100012816D0012010BD6A
:1018A00094F83E000128F9D184F83E200FE094F826
:1018B0003F000128F2D184F83F2008E094F840006E
:1018C0000128EBD184F8402001E084F84120012276
:1018D000206800F025FC12492068884203D1426C40
:1018E00042F400424264206888420ED0B0F1804F3A
:1018F0000BD00C49884208D00B49884205D00B49CF
:10190000884202D00A49884204D1816801F0070167
:10191000062903D0016841F001010160002010BDDB
:10192000000001400004004000080040000C00409E
:101930000040014070B5040004D094F83D0000253B
:1019400010B106E0012070BD84F83C50204600F044
:1019500023F8242084F83D002068C16821F4005158
:10196000C160204600F08CFC2068016921F49041A0
:1019700001612068416921F02A0141612068C16844
:1019800041F40051C1602564202084F83D0084F8B2
:101990003E00002070BD00002DE9F04186B00646F3
:1019A00014216846FEF75CFCDFF80CC1316843483F
:1019B000022203230727424D0024614552D13F49AB
:1019C0001431D1F800C04CF0100CC1F800C0096807
:1019D00001F010010591016841F00101016000680A
:1019E000694600F00100059058028DE81500CDE928
:1019F00003372846FFF730F8334D32484FF0006781
:101A0000E5E8020740204FF48068A5E811012E4860
:101A100045F81449AC61EC612C626C62FEF7A0FFE2
:101A200008B1FEF79AFF7563AE63274D2548603510
:101A300078382860C5E90174C5E903486C61AC6178
:101A4000EC612C6228466C62FEF78AFF08B1FEF753
:101A500084FFB563002211462520AE63FFF770FABC
:101A6000252023E0194EB14222D1144910310E68CD
:101A700046F400360E60096801F4003105910168F2
:101A800041F0010101600068694600F00100059025
:101A90000C208DE81500CDE903372846FEF7DCFF62
:101AA000002211462620FFF74BFA2620FFF73AFACC
:101AB00006B0BDE8F081000000100140303802405F
:101AC00000000240B8640240780200200044004058
:101AD000FEE70000114808B5016841F4800101608B
:101AE0000068002200F48000009011463A20FFF7C1
:101AF00027FA3A20FFF716FA002211464420FFF792
:101B00001FFA4420FFF70EFA002211464620FFF785
:101B100017FABDE808404620FFF704BA3038024003
:101B20002DE9F04387B014216846FEF799FB2F4852
:101B30000024016841F004010160016801F0040122
:101B40000591016841F080010160016801F08001A8
:101B50000591016841F001010160016801F0010196
:101B60000591016841F0020101600068204F00F01A
:101B700002004FF400550590002229463846FFF731
:101B800061F8DFF87080002201214046FFF75AF823
:101B9000DFF864904FF4A056002231464846FFF724
:101BA00051F800950125CDE9015469463846039462
:101BB000FEF752FF0095CDE9015469464046039473
:101BC000FEF74AFF0420CDE9000402200290694696
:101BD0004846FEF741FF0096CDE901546946484664
:101BE0000394FEF739FF07B0BDE8F08330380240B8
:101BF0000008024000000240000402400D4810B5F9
:101C00000B4901600C49416000214FF48042816022
:101C1000C0E9031241618161C1610162FFF71EF8F1
:101C2000002803D0BDE81040FEF797BE10BD0000AD
:101C3000005C00409C000020A0860100104810B508
:101C40000E4901604FF482714160002102228160DF
:101C5000C0E90312012242615202C0E90621016279
:101C6000416281620A21C162FFF73EFC002803D075
:101C7000BDE81040FEF771BE10BD0000003001400D
:101C8000F000002010B58AB0002407941C2168469B
:101C90000894FEF7E5FA2248204901605421C0E982
:101CA00001144FF47A71C0E903148461FFF7A9FDB0
:101CB00008B1FEF752FE079407A919480894FFF7E8
:101CC000D5FC08B1FEF749FE6020CDE9000402947E
:101CD0000022694612480494FFF730FD08B1FEF770
:101CE0003CFE042269460E48FFF728FD08B1FEF7C6
:101CF00034FE082269460A48FFF720FD08B1FEF7C6
:101D00002CFE0C2269460648FFF718FD08B1FEF7C5
:101D100024FE0348FFF7E8FC0AB010BD00080040AD
:101D2000A80100200C4810B50A4901604FF4E131C8
:101D30004160002181600C22C160C0E90412816110
:101D4000C161FFF7F7FD002803D0BDE81040FEF7A2
:101D500004BE10BD00100140F00100200C4810B579
:101D60000A4901604FF4E1314160002181600C2299
:101D7000C160C0E904128161C161FFF7DBFD002889
:101D800003D0BDE81040FEF7E8BD10BD00440040A0
:101D900034020020FEE700000D4B10B50C4A0C3356
:101DA000002802DB1060002002E0002414604042A2
:101DB0001860074A4FF000030832101F002902DBA9
:101DC0001360016010BD03604842106010BD000048
:101DD00034080040FEE7000010B5074C00224FF425
:101DE00080512046FEF72EFF20460122BDE810401C
:101DF0009102FEF727BF000000040240A0B1D0ED21
:101E0000101AC0ED111A90ED0F1A80ED101AC0EDE6
:101E1000060A80ED070A30EEC00A80ED0F0A01784D
:101E200029B101293BD078E09FED3D0A7047D0ED04
:101E3000010A60EE801AC0ED091AD0ED0A0A90ED91
:101E4000022A42EE000A30EE410AC0ED0A0A90ED85
:101E50000D2A80ED0E2A90ED0C2A80ED0D2A80EDE2
:101E60000C0A90ED031A21EE001A80ED0B1A90ED8A
:101E7000050AF4EEC00AF1EE10FA09DCB1EE400AF0
:101E8000F4EEC00AF1EE10FA02D390ED0A0A01E076
:101E900080ED0A0A31EE800A30EE010A2BE070EE86
:101EA000410A90ED012A20EE822A80ED092AD0ED28
:101EB000020A60EE800AC0ED0A0AD0ED0D2A72EE29
:101EC000200AC0ED0E2AD0ED0C2AC0ED0D2AF0EE4E
:101ED000002A01EE620A30EE210A80ED0C0A90ED34
:101EE000031A21EE000A80ED0B0A30EE800AD0EDD5
:101EF000080A30EE200A80ED080AD0ED040AB4EE9C
:101F0000E00AF1EE10FA06DCF1EE600AB4EEE00A47
:101F1000F1EE10FA01D2C0ED080A90ED080A704700
:101F200000000000002828D0002A26D0017092ED81
:101F3000001A80ED011A92ED011A80ED021A92ED5D
:101F4000021A80ED031A80ED040A9FED0C0AC0ED21
:101F5000050A80ED0E0A80ED0D0A80ED0C0A80ED79
:101F6000080A80ED0B0A80ED0A0A80ED090A80ED6F
:101F7000110A80ED100A80ED0F0A70470000000082
:101F800070470000104A10B511680B6823F0400339
:101F90000B600E490B684FF6C77423400B600B684B
:101FA00003430B60086820F00200086008680860BE
:101FB000086820F00100086008680860106801687F
:101FC00041F04001016010BDF000002000300140F0
:101FD0007047FEF74DBF000030B593B03021684622
:101FE000FEF73EF914210CA8FEF73AF91D4800252A
:101FF000016841F080510160006800F0805011904C
:102000001948016821F4404141F400410160006831
:10201000022400F44040119001200090000401903F
:102020008001CDE9064019200890A820CDE90904D7
:1020300004200B906846FFF7A1F808B172B6FEE7DE
:102040000CA90F2081E831004FF48050CDE90F0535
:1020500002210CA8FEF7A6FF002801D072B6FEE709
:1020600013B030BD403802400070004005480168A0
:1020700041F47001016003494FF00060803908604D
:102080007047000088ED00E0F0B502681D4B1E4C63
:102090009F031E4D1E4E984207D0B84205D0A04265
:1020A00003D0A84201D0B04204D122F0700C4A689B
:1020B00042EA0C02984210D0B8420ED0A0420CD096
:1020C000A8420AD0B04208D0124CA04205D0124C0F
:1020D000A04202D0114CA04203D122F44074CA683D
:1020E00022434C6922F08002224302608A68C26265
:1020F0000A688262984201D1096901630121416144
:10210000F0BD000000000140000400400008004055
:10211000000C0040004001400044014000480140E4
:1021200010B501F01F030121046A99408C43046239
:10213000016A9A401143016210BD000030B5026A85
:1021400022F001020262026A4368846924F0730586
:102150000C682C4322F002058A682A430A4DA842E3
:102160000BD122F00805CA6823F440732A434D6955
:1021700022F004021D438B692B434360846149684C
:102180004163026230BD00000000014030B5026AC8
:1021900022F010020262026A436884690D6824F426
:1021A000E64444EA05248D6822F0200242EA051242
:1021B0000B4DA8420ED1CD6822F0800242EA0512F2
:1021C0004D6923F4406343EA85038D6922F04002A0
:1021D00043EA85034360846149688163026230BDDC
:1021E0000000014030B5026A22F480720262036A84
:1021F0004268C46923F4007324F073050C682C430F
:102200008D6843EA05230C4DA8420ED1CD6823F416
:10221000006343EA05234D6922F4405242EA051265
:102220008D6923F4806342EA05124260C461496803
:10223000C163036230BD00000000014030B5026A96
:1022400022F480520262046A4268C3690D6823F472
:10225000E64343EA05238D6824F4005444EA053438
:10226000064DA84204D14D6922F4804242EA85120B
:102270004260C36149680164046230BD00000140EE
:1022800070B5044600680169E26821F440511143C9
:1022900001612169A068E26908436169114308434B
:1022A0002168CA6849F20C639A430243CA602068F5
:1022B0004169A26921F440711143416131492068AB
:1022C000884202D03049884202D1FEF715FF01E072
:1022D000FEF702FFE2690023192164253226B2F5D8
:1022E000004F626828D0A0FB0101930F9200FDF718
:1022F0006DFF0146B0FBF5F06FF01802504301EBA3
:10230000800006EB0010B0FBF5F000F0F002B1FB2E
:10231000F5F002EB0012B1FBF5F06FF01803584333
:1023200001EB800006EB0010B0FBF5F000F00F00B1
:1023300021681044886070BDA0FB010192185B41C8
:10234000FDF744FF0146B0FBF5F00201B1FBF5F0EB
:102350006FF01803584301EB800006EBC000B0FBA0
:10236000F5F000F0F80002EB4002B1FBF5F0584345
:1023700001EB800006EBC000B0FBF5F000F00700B9
:10238000D6E7000000100140001401401F4818B4B7
:102390000068C00637D51E4801680A684968009180
:1023A000816B09680A681B4B12030A684FF480743A
:1023B00022F001020A60816B09684A68C2F58072E6
:1023C00092B21A804C60816B09680B680CD443F49C
:1023D00000230B60806B0068016841F0010101601F
:1023E0000D4901F580600BE023F400230B60806B46
:1023F0000068016841F001010160084901F5407081
:1024000018BC01F091B918BC7047000000100140E1
:10241000F0010020140000203803002038040020C0
:10242000094881B0006880060BD50848006801683B
:10243000406800900448001D006801B0C0B2FEF77B
:10244000E7B901B0704700000044004034020020AA
:102450002DE9F04100282DED0A8B7DD09FED919A5A
:10246000914C04F140059FED918B924E012874D060
:102470009FED910A9FED91CB9FED92BB31460228D3
:1024800091ED01AA6AD0032869D1B069401D01EE1F
:10249000100AB061F8EE410A80EE801A11EE100ABF
:1024A000FEF732F853EC1C2BFDF78CFFFEF73FF8DC
:1024B0000746DFED860A8AEE200A10EE100AFEF7C4
:1024C00023F841EC100B00F03BFA53EC1B2B51ECC2
:1024D000100BFDF777FFFEF72AF8F0603846FEF79D
:1024E00013F841EC100B00F097FB9FED791B51ECBA
:1024F000100B53EC112BFDF765FFFEF718F800EEFB
:10250000900AC6ED020A94ED010A67488030FFF791
:1025100075FCBDEEC00A10EE100AE062624895ED4F
:10252000010AF0EE490AC830FFF768FCBDEEC00AA8
:1025300010EE100AE862E06AFDF7B6FF53EC182BC4
:10254000FDF740FF41EC190BE86AFDF7ADFF53ECD6
:10255000182BFDF737FF03E026E032E039E02CE0EE
:1025600053EC192BFDF728FFFDF7AFFF0646E86A8D
:10257000FDF79AFF53EC182BFDF724FF41EC190BE4
:10258000E06AFDF791FF53EC182BFDF71BFF53ECAE
:10259000192BFDF770FEFDF798FFBDEC0A8B314655
:1025A000BDE8F041FFF7F8BB4B4900200860091D6A
:1025B0000860091D0860091D0860BDEC0A8BBDE8B4
:1025C000F0813069F0EE490A401D306194ED010A56
:1025D0009BE77069401D00EE900A7061B8EE601ACA
:1025E000C1EE000A10EE900AFDF78EFF53EC1C2B93
:1025F000FDF7E8FEFDF79BFFDFED380A09EE900AD4
:102600008AEE200A10EE100AFDF77EFF41EC100B57
:1026100000F096F953EC1B2B51EC100BFDF7D2FE9A
:10262000FDF785FF0746307810B1012803D004E09C
:102630009FED2B9A01E09FED2B9A19EE900AFDF782
:1026400063FF41EC100B00F0E7FAB0EE40AAF0EEA9
:1026500060AA3846FDF758FF53EC1A2BFDF7B2FE7F
:10266000FDF765FF39EE890A0AEE100A10EE100A2E
:10267000FDF74AFF41EC100B00F0CEFAB0EE409AA5
:10268000F0EE609A3846FDF73FFF53EC192BFDF74B
:1026900099FEFDF74CFF09EE100A94ED010AF0EEE9
:1026A0004A0A32E700000000F007002039B4C8767B
:1026B000BE9FE63F28000020CDAC9E446E861BF0F6
:1026C000F9211940000000C0DCA54C400000544234
:1026D0000000000000003440340800400000B04218
:1026E000D80FC93FE2CB9640FEE7000010B50122AB
:1026F0002DED028B11462148FEF7A4FA2048006810
:10270000C16841F02001C16000211E48FFF7BAF8FE
:1027100004211C48FFF7B6F808211A48FFF7B2F861
:102720000C211848FFF7AEF8174900209FED170A53
:10273000087217489FED178A024680ED000A80ED67
:10274000010A80ED020AF0EE480AB0EE480A0021C4
:102750009038FFF7E7FB0E4AF0EE480AB0EE480A61
:102760000021A2F14800FFF7DDFBBDEC028B41F236
:102770008830BDE81040FEF75DB90000000002405F
:1027800034020020A8010020E4070020000000001F
:102790000009002000401C4610B52DED028BFEF70D
:1027A00057FA454C2168401A05287DD3FEF750FAA8
:1027B0002060424C2078012832D100202070217AFC
:1027C0009FED3F0A3F4841B1DFED3F0A01290BD0A1
:1027D000022909D0032907D00CE080ED000A80ED22
:1027E000010A80ED020A05E080ED000A80ED010A91
:1027F000C0ED020A9FED358A324A0021F0EE480A08
:10280000B0EE480AA2F19000FFF78CFB2D4AF0EEE3
:10281000480AB0EE480A0021A2F14800FFF782FB07
:102820002B48DFED2C0AB0F9001000EE101A2B49EE
:10283000B8EEC00A20EE201A9FED270A21EE001AFA
:1028400081ED001AB0F9022001EE902AF8EEE11AAB
:1028500061EEA01A61EE801AC1ED011AB0F9040010
:1028600002EE100A1E48B8EEC22A62EE200A20EEDE
:10287000800A81ED020AB0EE0C0A31EEC00A80ED4A
:10288000010A11EE100AFDF73FFE9FED161B53ECF7
:10289000112BFDF791FDFDF74AFE114940314860CB
:1028A000207ABDEC028B00E003E0BDE81040FFF7AA
:1028B000CFBDBDEC028B10BD00000020E40700205E
:1028C000000000000009002000007A4500401C467E
:1028D0005E0000200000003800003443080A002099
:1028E000F0070020333333333333FBBF03B4019895
:1028F0004100009850EAC12018BF04204A0D18BFBB
:1029000040F0010040F2FF72B2EB515F08BF40F0AF
:102910000200012808BF052002B070470907090E10
:10292000002804DB00F1E02080F80014704700F07C
:102930000F0000F1E02080F8141D70470000000037
:1029400070B59B482DED020B2DED068B079D25F0F4
:102950000044A04218DC9748844202DC0AD1069861
:1029600040B19DED060BBDEC068B02B0BDE870409A
:1029700000F09EBD002DCCBF9FED8F0B9FED900B07
:10298000BDEC068B02B070BD8F48A04215DD8F48AC
:10299000A042D8BF4FF0FF3458DD9DED060B51EC3F
:1029A000100BFFF7A3FF042808BF00F09DFD9DED6D
:1029B000060BBDEC068B02B070BD9DED060B51EC15
:1029C000100B00F05BFECDE9060181489FED828B84
:1029D000A0423CDD8248A0421FDD00249FED82AB77
:1029E0009DED060B53EC1A2B51EC100BFDF743FC3D
:1029F0009DED060B41EC190B53EC1A2B51EC100B0F
:102A0000FDF7E0FC53EC182BFDF7D6FC53EC192B2B
:102A1000FDF76EFECDE9060149E09DED060B0124B0
:102A200053EC182B51EC100BFDF725FC9DED060B1C
:102A300041EC190B53EC182B51EC100BFDF7BCFCBF
:102A400053EC192BFDF754FECDE906012FE0684841
:102A5000A0421FDD02249FED689B9DED060B53EC09
:102A6000192B51EC100BFDF7ADFC53EC182BFDF7B7
:102A700002FC9DED060B41EC180B53EC192B51ECAD
:102A8000100BFDF799FC53EC182BFDF731FECDE947
:102A900006010CE09DED060B032453EC102B9FED7B
:102AA000580B51EC100BFDF723FECDE906019DED0F
:102AB000060B53EC102B51EC100BFDF783FC41EC93
:102AC000180B53EC182BFDF77DFC41EC190B4E480D
:102AD0000621B0EE490AF0EE690A784400F0D4FB12
:102AE00053EC182B51EC100BFDF76CFC41EC180B60
:102AF0004648B0EE490AF0EE690A0521784400F034
:102B0000C3FB53EC192B51EC100BFDF75BFC41ECB4
:102B1000100B51EC180B53EC102B002C0EDAFDF7B8
:102B2000AAFB9DED061B53EC112BFDF74BFC9DED15
:102B3000061B53EC112BFDF742FC35E0FDF79BFB28
:102B40009DED061B53EC112BFDF73CFC41EC100BEB
:102B50002F48784400EBC40090ED001B51EC100BA3
:102B600053EC112BFDF728FC9DED061B53EC112BAC
:102B7000FDF722FC41EC100B2648784400EBC40022
:102B800090ED001B51EC100B53EC112BFDF717FCD3
:102B900041EC100B002DA2BFBDEC068B02B070BD46
:102BA00051EC100B81F0004141EC100B01E70000EB
:102BB000000010440000F07F182D4454FB21F93F21
:102BC000182D4454FB21F9BF0000DC3F0000203EDB
:102BD0000000F33F00000000000000000000F03F94
:102BE0000000E63F00000000000000000000004080
:102BF0000080034000000000000000000000F83FDB
:102C0000000000000000F0BF5A0E0000100E00008F
:102C10009A0D0000520D000010B52F499FED2C1B9E
:102C20002DED020B84B0059820F000408842DCBFF7
:102C300000209DED040B32DD2849884209D104981B
:102C400040B94FF0010000F06FFC00F03DFC06B011
:102C500010BD05DB9DED040B00F02AFC06B010BD95
:102C600068469DED040B00F03BF810F0030011D016
:102C7000012818D09DED021B9DED000B02281AD0F3
:102C800000F04AFA51EC100B81F0004106B041EC23
:102C9000100B10BD9DED021B9DED000B012000F0FF
:102CA0006FFB06B010BD9DED021B9DED000B00F00B
:102CB00033FA06B010BD012000F062FB51EC100B9E
:102CC00081F0004106B041EC100B10BD0000000087
:102CD0000000000000000000FB21E93F0000F07F41
:102CE0002DE9F14F04462DED020B2DED088B8AB036
:102CF0009FEDE70B80ED020B139EE74826F00045A1
:102D000085420ADC9DED120B002084ED000B0AB019
:102D1000BDEC088B03B0BDE8F08FE0489FEDE0AB61
:102D20009FEDE1BBA84247DDE14F9FEDE39B9FEDA7
:102D3000E48B9DED120B53EC1A2B51EC100B002E73
:102D40001CDDFDF739FB41EC100BBD4208D053EC04
:102D50001B2B51EC100BFDF72FFBC4E900010BE01E
:102D600053EC192B51EC100BFDF726FB53EC182BF1
:102D7000FDF722FBC4E900010120C8E7FDF77BFA5B
:102D800041EC100BBD4208D053EC1B2B51EC100B47
:102D9000FDF771FAC4E900010BE053EC192B51EC7B
:102DA000100BFDF768FA53EC182BFDF764FAC4E931
:102DB00000014FF0FF30AAE7C348A84279DB9DED40
:102DC000120B51EC100B00F059FC41EC180B9FED6D
:102DD000C00B53EC102BFDF7F5FA9FEDBF1B53EC26
:102DE000112BFDF748FAFDF770FB0746FDF75CFB7A
:102DF00041EC190B53EC1A2BFDF7E4FA53EC182BAA
:102E0000FDF7DDFA41EC180B53EC1B2B51EC190BC1
:102E1000FDF7D8FADFF8C8A241EC100B4FEA1558BD
:102E20000125FA4453EC102B51EC180BFDF7C4FAB2
:102E3000032DC4E900013DD0C1F30A5005EB451153
:102E4000A8EB00001139814234DA0AEB051BB0EE21
:102E500048AA9BED000BF0EE68AA53EC102B51EC46
:102E6000190BFDF7AFFA41EC1B0B51EC1A0B53ECAD
:102E70001B2BFDF7A1FA41EC180B51EC1A0B53EC8C
:102E8000182BFDF799FA53EC1B2BFDF795FA9BEDE8
:102E9000020B41EC1A0B53EC102B51EC190BFDF704
:102EA00091FA53EC1A2BFDF787FA41EC100B6D1CCD
:102EB000B8E70EE0002EA8BF3846BFF628AF94ED65
:102EC000000B51EC100B81F00041C4E90001784285
:102ED0001DE7C6F3130040F4801EC6F30A50A0F2AB
:102EE000F530471100F01F05C5F12000DDF848B0AE
:102EF00008900020069007900520EC467949002DA7
:102F000007EB0002794408BF51F8221009D051F8AC
:102F1000223001EB8201AB404A68089922FA01F1A4
:102F20001943A1FB0E26A1FB0B131A449A4234BF8E
:102F30000123002303EB06080CEB8003D3E901A671
:102F40000E448E4234BF0121002192448A4411B1C3
:102F5000924502D903E0924501D2012100E000210F
:102F6000C3E901A641444CF82010011EA0F1010064
:102F7000C4DC029800F10050850F0298DDE9036778
:102F80008000DDF81480FDF78FFA41EC1A0B304613
:102F9000FDF730FC9FED541B53EC112BFDF712FA9B
:102FA00041EC1B0B3846FDF725FC9FED511B53EC04
:102FB000112BFDF707FA41EC180B4046FDF71AFC00
:102FC0009FED4D1B53EC112BFDF7FCF941EC190B58
:102FD00051EC180B53EC192BFDF74DF953EC1B2B4F
:102FE000FDF749F953EC1A2BFDF745F9CDE9080136
:102FF000002008909DED080B53EC1A2B51EC100BA0
:10300000FDF7DAF953EC1B2BFDF7D6F953EC182B2F
:10301000FDF7D2F953EC192BFDF7D1F99FED381BD1
:1030200053EC112BFDF7CEF99FED370B41EC180B4C
:1030300053EC102B9DED080B51EC100BFDF7C2F972
:1030400053EC182BFDF717F99FED310B41EC180BE2
:1030500053EC102B9DED080B51EC100BFDF7B2F962
:1030600053EC182BFDF707F941EC100B139810F0F7
:10307000004F06D06D4251EC100B81F0004141EC45
:10308000100B284684ED000B41E600000000000014
:103090000000000000000000FB21E93F7CD9024055
:1030A00000004054FB21F93F3163621A61B4D03D06
:1030B000FB21F93F000000000000601A61B4D03D20
:1030C0007370032E8A19A33BFB21394100000000D5
:1030D00083C8C96D305FE43F000000000000E03F9E
:1030E000720B0000C00A0000000000000000103E4B
:1030F000000000000000103C000000000000103A3A
:10310000182D4454FB21F93D3326A611460B113CE2
:1031100000000054FB21F93D10B52DED040B2DED01
:10312000088B82B0B0EE419AF0EE619A0B9820F0D5
:1031300000449FED4BABB4F1795F11DA9DED0A0BC2
:1031400051EC100BFDF7C1F9002801BFB0EE4A0A9F
:10315000F0EE6A0A02B0BDEC088B04BF04B010BDEB
:103160009DED0A0B53EC102B51EC100BFDF72AF9D7
:1031700041EC180B3C480621B0EE480AF0EE680A14
:10318000784400F081F853EC182B51EC100BFDF74C
:1031900019F99DED0A0B41EC1B0B53EC192B51EC6B
:1031A000100BFDF70FF941EC190B53EC1B2B51ECF5
:1031B000180BFDF707F953EC192BFDF7FDF89FED00
:1031C0002C0B41EC190B53EC102B51EC180BFDF7A9
:1031D000F9F841EC100B2848844210DA53EC192B13
:1031E00051EC100BFDF7E8F853EC1A2BFDF7E7F85C
:1031F00041EC100B02B0BDEC088B04B010BD1F48B1
:10320000A042BCBF9FED1E1B8DED001B06DBA4F58D
:1032100000100190002000909DED001B51EC100B60
:1032200053EC112BFDF7C8F89DED000B41EC180B8A
:1032300053EC102B51EC1A0BFDF7BEF841EC1A0BB6
:1032400053EC192B51EC180BFDF7B6F853EC1A2B75
:10325000FDF7B5F841EC100BCCE7000000000000D2
:10326000000000000000F03FE40700000000000044
:10327000000000000000E03F3333D33F0000E93F8F
:10328000000000000000D23F70B504462DED028B17
:103290004D1E00EBC500B0EE408AF0EE608A90ED66
:1032A000000B35F0060017D053EC182B51EC100B27
:1032B000FDF788F841EC100B6D1E04EBC50090ED96
:1032C000001B51EC100B53EC112BFCF7D4FF41EC1D
:1032D000100B35F00600E7D1022D36D0042D1CD09E
:1032E000062D1CBFBDEC028B70BD53EC182B51ECAE
:1032F000100BFDF767F894ED0A1B53EC112BFCF74C
:10330000BAFF53EC182BFDF75DF894ED081B53EC56
:10331000112BFCF7B0FF41EC100B53EC182B51ECC8
:10332000100BFDF74FF894ED061B53EC112BFCF737
:10333000A2FF53EC182BFDF745F894ED040B53EC6A
:10334000102BFCF798FF41EC100B53EC182B51ECB1
:10335000100BFDF737F894ED021B53EC112BFCF723
:103360008AFF53EC182BFDF72DF894ED001B53EC5E
:10337000112BFCF780FFBDEC028B41EC100B70BDF4
:1033800031B504462DED040B2DED0A8BB0EE41BA9C
:10339000F0EE61BA0B989DED0A0B20F00040B0F101
:1033A000795F0DDA51EC100BFFF7A0FA042808BF83
:1033B00000F09AF89DED0A0BBDEC0A8B05B030BD0C
:1033C00053EC102B51EC100BFCF7FCFF41EC180BED
:1033D0009DED0A0B53EC182B51EC100BFCF7F2FF90
:1033E00041EC190B2C48B0EE480AF0EE680A0521B2
:1033F0007844FFF749FF9FED2ACBB0EE40AAF0EEEC
:1034000060AA9CB353EC1C2B51EC190BFCF7DAFFB0
:1034100041EC1C0B53EC1A2B51EC190BFCF7D2FFAF
:103420009FED210B41EC190B53EC102B51EC1B0BB6
:10343000FCF7C8FF53EC192BFCF7BEFF53EC182B1D
:10344000FCF7C0FF53EC1B2BFCF7B6FF53EC1C2B17
:10345000FCF7B2FF9DED0A1B53EC112BFCF7AFFFFD
:10346000BDEC0A8B05B041EC100B30BDFFE753EC0F
:103470001A2B51EC180BFCF7A5FF53EC1C2BFCF797
:10348000FAFE53EC192BFCF79DFF9DED0A1B53EC44
:10349000112BFCF7F0FEE3E76C06000000000000D3
:1034A000495555555555C5BF000000000000E03F87
:1034B00010B553EC102B51EC100BFCF7DCFE41EC7B
:1034C000100B10BD000000009FED050B10B553EC74
:1034D000102B51EC100BFDF70BF941EC100B10BD4C
:1034E00000000000000000009FED050B10B553EC3C
:1034F000102B51EC100BFCF765FF41EC100B10BDCD
:10350000000000000000001002E008C8121F08C1FF
:10351000002AFAD170477047002001E001C1121F54
:10352000002AFBD170470000014908607047000085
:103530009800002010B500F04FF9FFF7D7F8FEF71C
:103540004BFC094801680A6842F040020A600068C2
:10355000416841F0020141606420FDF76BFABDE86B
:1035600010401820FEF70EBDF000002010B50848EE
:1035700000F012F8FFF710F9FDF76AFB054C21681F
:10358000401AB0F5FA7F02D3FDF762FB206010BD50
:1035900038070020180000202DE9F04186B00024F3
:1035A00080468DF80C408DF8104026468DF804407A
:1035B00000F0F8F8002810D0284D01272878B0B185
:1035C000012819D0022824D0032806D124482C70C1
:1035D00007702248C01C00F045F806B0BDE8F08135
:1035E000012203A9404600F055F8401CF5D09DF893
:1035F0000C00A528F4D12F70404600F0D3F8032822
:10360000EBDB16490122C91C404600F043F80220BA
:103610002870404600F0C6F80228DEDB012201A92E
:10362000404600F037F80D490020C91C0A5C401ED6
:103630003244D6B2C0B2F9D2012204A9404600F009
:1036400029F89DF80400864203D19DF810005A28FD
:1036500001D02C70C1E703202870B7E71C000020C0
:10366000E40700200349007808724FF40051024833
:10367000FDF7E0BAE40700200008024082B0CDE97F
:10368000000121F0004001909DED000B02B051ECD3
:10369000100B70472DE9F0475FEA01080546EFF38C
:1036A000108672B630D0EC6874B3296968688142BC
:1036B00001D929682961944200DD1446471A7F1C0C
:1036C000A74206DB22464046FCF7B1FD28692044AC
:1036D0000EE0A4EB07093A464046FCF7A8FD08EBCC
:1036E00007004A462968FCF7A2FD296801EB09009A
:1036F0002861A8682044A860E868001BE8602046AC
:1037000086F31088BDE8F08786F310884FF0FF300D
:10371000F8E78B185B1E0160C0E901320022C0E9A6
:1037200003214161104670472DE9F0475FEA010827
:103730000546EFF3108672B62FD0AC686CB369689B
:103740006869884201D928686861944200DD14469E
:103750000F1A7F1CA74206DB22464146FCF767FD95
:10376000686920440DE0A4EB07093A464146FCF79E
:103770005EFD08EB07014A462868FCF758FD2868FB
:1037800048446861A868001BA860E8682044E860B5
:10379000204686F31088BDE8F08786F310884FF046
:1037A000FF30F8E7C0687047FDF76AFBFEF714FCCE
:1037B000FEF7B6F9FEF78EF9FEF7B4FAFEF73EFA19
:1037C000FEF71CFAFEF75EFAFEF7C8FAFFF7B2FE44
:1037D000FFF7CCFEFCE700002D4910B54FF4007256
:1037E00001F50070FFF795FF2A4801684A6942F029
:1037F00040024A6101684A6942F080024A610068F9
:10380000C16841F01001C160234801680A6822F0D4
:1038100001020A6001680A68D207F7D11F4C4FF411
:103820000012A14202D91D4B4C3B04E01C4B9942B3
:1038300003D91A4B503B1A6008E0194C184B603CF6
:10384000B83BA14201D9DA6000E09A60154A8A606B
:1038500003681549D960036801F58071196103682F
:103860009115596001680B6843F480230B60006870
:10387000016841F0010101600C4801680B6823F008
:1038800001030B6001680B68DB07F7D18A6010BD8C
:1038900038050020F0010020D802002058640240C2
:1038A000B860024004100140380300207802002074
:1038B00000061016000610160000000000000000B0
:1038C00001020304060708090000000001020304C6
:1038D0004FBB610567ACDD3F182D4454FB21E93F28
:1038E0009BF681D20B73EF3F182D4454FB21F93F17
:1038F000E2652F227F2B7A3C075C143326A6813C9D
:10390000BDCBF07A8807703C075C143326A6913C47
:10391000C4EB98999999C9BF711623FEC671BCBFB3
:103920006D9A74AFF2B0B3BF9AFDDE522DDEADBF1B
:103930002F6C6A2C44B4A2BF0D5555555555D53F33
:10394000FF8300922449C23F6E204CC5CD45B73F4E
:10395000513DD0A0660DB13FEB0D76244B7BA93FC6
:1039600011DA22E33AAD903F4C5555555555A53FD8
:103970007751C1166CC156BF9015CB19A001FA3E04
:10398000AD529C804F7E92BEC4B1B4BD9EEE213E2E
:10399000D43888BEE9FAA8BD00004054FB21F93FA5
:1039A0003163621A61B4D03D0000601A61B4D03D49
:1039B0007370032E8A19A33B0000002E8A19A33BC3
:1039C000C14920259A837B390000000000000000D7
:1039D0006E83F9A22915444ED15727FCC0DD34F57A
:1039E000999562DB4190433CAB6351FE61C5BBDE00
:1039F0003A6E24B7E0D24D42EA2E49061C92D10914
:103A00001CEB1DFE3EA729B1F53582E88444BB2E90
:103A100026709CE9417E5FB439D69139F4395383DD
:103A20008B5F849C3B28F9BDFF97F81F0F9805DE3C
:103A30008B112FEF1F6D0A5ACF7E366DB709CB273A
:103A4000663F464F2DEA5F9EC7BA27757BF1E5EBCF
:103A5000F739073DEA92528AB15FFB6B085D8D1F13
:103A6000A6F810111111813FD561C119A0012ABF1B
:103A70007DFEB157E31DC73EEB9C2B8AE6E55ABE9F
:103A80007CD5CF5A3AD9E53DA83A0008000000207D
:103A90009C00000008350008443B00089C00002002
:103AA0007C0D000018350008000000000100000037
:103AB00010000000000000000024F40000000000DE
:103AC00000000000000000000000000000000000F6
:103AD000000000000000F0410000000000000000B5
:103AE00000000000000000000000000000000000D6
:103AF00000000000000000000000000000000000C6
:103B000000000000000000000000000000000000B5
:103B100000000000000000000000000000000000A5
:103B20000000000000000000000000000000000095
:103B30000000000000000000000000000000000085
:043B40000000000081
:040000050800019559
:00000001FF
